{
  "_format": "hh-sol-artifact-1",
  "contractName": "NewsFeed",
  "sourceName": "contracts/NewsFeed.sol",
  "abi": [
    {
      "inputs": [],
      "stateMutability": "nonpayable",
      "type": "constructor"
    },
    {
      "anonymous": false,
      "inputs": [
        {
          "indexed": false,
          "internalType": "uint256",
          "name": "id",
          "type": "uint256"
        },
        {
          "indexed": false,
          "internalType": "string",
          "name": "title",
          "type": "string"
        },
        {
          "indexed": false,
          "internalType": "string",
          "name": "description",
          "type": "string"
        },
        {
          "indexed": false,
          "internalType": "string",
          "name": "location",
          "type": "string"
        },
        {
          "indexed": false,
          "internalType": "string",
          "name": "category",
          "type": "string"
        },
        {
          "indexed": false,
          "internalType": "string",
          "name": "coverImageHash",
          "type": "string"
        },
        {
          "indexed": false,
          "internalType": "string",
          "name": "date",
          "type": "string"
        },
        {
          "indexed": false,
          "internalType": "address",
          "name": "author",
          "type": "address"
        }
      ],
      "name": "FeedCreated",
      "type": "event"
    },
    {
      "inputs": [
        {
          "internalType": "string",
          "name": "_title",
          "type": "string"
        },
        {
          "internalType": "string",
          "name": "_description",
          "type": "string"
        },
        {
          "internalType": "string",
          "name": "_location",
          "type": "string"
        },
        {
          "internalType": "string",
          "name": "_category",
          "type": "string"
        },
        {
          "internalType": "string",
          "name": "_coverImageHash",
          "type": "string"
        },
        {
          "internalType": "string",
          "name": "_date",
          "type": "string"
        }
      ],
      "name": "createFeed",
      "outputs": [],
      "stateMutability": "nonpayable",
      "type": "function"
    },
    {
      "inputs": [],
      "name": "getAllFeeds",
      "outputs": [
        {
          "components": [
            {
              "internalType": "uint256",
              "name": "id",
              "type": "uint256"
            },
            {
              "internalType": "string",
              "name": "title",
              "type": "string"
            },
            {
              "internalType": "string",
              "name": "description",
              "type": "string"
            },
            {
              "internalType": "string",
              "name": "location",
              "type": "string"
            },
            {
              "internalType": "string",
              "name": "category",
              "type": "string"
            },
            {
              "internalType": "string",
              "name": "coverImageHash",
              "type": "string"
            },
            {
              "internalType": "string",
              "name": "date",
              "type": "string"
            },
            {
              "internalType": "address",
              "name": "author",
              "type": "address"
            }
          ],
          "internalType": "struct NewsFeed.Feed[]",
          "name": "",
          "type": "tuple[]"
        }
      ],
      "stateMutability": "view",
      "type": "function"
    },
    {
      "inputs": [
        {
          "internalType": "uint256",
          "name": "_id",
          "type": "uint256"
        }
      ],
      "name": "getFeed",
      "outputs": [
        {
          "components": [
            {
              "internalType": "uint256",
              "name": "id",
              "type": "uint256"
            },
            {
              "internalType": "string",
              "name": "title",
              "type": "string"
            },
            {
              "internalType": "string",
              "name": "description",
              "type": "string"
            },
            {
              "internalType": "string",
              "name": "location",
              "type": "string"
            },
            {
              "internalType": "string",
              "name": "category",
              "type": "string"
            },
            {
              "internalType": "string",
              "name": "coverImageHash",
              "type": "string"
            },
            {
              "internalType": "string",
              "name": "date",
              "type": "string"
            },
            {
              "internalType": "address",
              "name": "author",
              "type": "address"
            }
          ],
          "internalType": "struct NewsFeed.Feed",
          "name": "",
          "type": "tuple"
        }
      ],
      "stateMutability": "view",
      "type": "function"
    },
    {
      "inputs": [],
      "name": "getTotalFeeds",
      "outputs": [
        {
          "internalType": "uint256",
          "name": "",
          "type": "uint256"
        }
      ],
      "stateMutability": "view",
      "type": "function"
    }
  ],
  "bytecode": "0x60806040523480156200001157600080fd5b506200005d6040518060400160405280601181526020017f4e65777346656564206465706c6f7965640000000000000000000000000000008152506200006360201b62000bb91760201c565b620001f7565b62000103816040516024016200007a919062000170565b6040516020818303038152906040527f41304fac000000000000000000000000000000000000000000000000000000007bffffffffffffffffffffffffffffffffffffffffffffffffffffffff19166020820180517bffffffffffffffffffffffffffffffffffffffffffffffffffffffff83818316178352505050506200010660201b60201c565b50565b60008151905060006a636f6e736f6c652e6c6f679050602083016000808483855afa5050505050565b60006200013c8262000194565b6200014881856200019f565b93506200015a818560208601620001b0565b6200016581620001e6565b840191505092915050565b600060208201905081810360008301526200018c81846200012f565b905092915050565b600081519050919050565b600082825260208201905092915050565b60005b83811015620001d0578082015181840152602081019050620001b3565b83811115620001e0576000848401525b50505050565b6000601f19601f8301169050919050565b61163380620002076000396000f3fe608060405234801561001057600080fd5b506004361061004c5760003560e01c8063128767981461005157806377641b551461006f5780639f59e5931461008d578063ecb76d90146100a9575b600080fd5b6100596100d9565b6040516100669190611239565b60405180910390f35b610077610505565b604051610084919061129f565b60405180910390f35b6100a760048036038101906100a29190610e1a565b61050e565b005b6100c360048036038101906100be9190610f33565b61078a565b6040516100d0919061127d565b60405180910390f35b60606002805480602002602001604051908101604052809291908181526020016000905b828210156104fc5783829060005260206000209060080201604051806101000160405290816000820154815260200160018201805461013b9061149c565b80601f01602080910402602001604051908101604052809291908181526020018280546101679061149c565b80156101b45780601f10610189576101008083540402835291602001916101b4565b820191906000526020600020905b81548152906001019060200180831161019757829003601f168201915b505050505081526020016002820180546101cd9061149c565b80601f01602080910402602001604051908101604052809291908181526020018280546101f99061149c565b80156102465780601f1061021b57610100808354040283529160200191610246565b820191906000526020600020905b81548152906001019060200180831161022957829003601f168201915b5050505050815260200160038201805461025f9061149c565b80601f016020809104026020016040519081016040528092919081815260200182805461028b9061149c565b80156102d85780601f106102ad576101008083540402835291602001916102d8565b820191906000526020600020905b8154815290600101906020018083116102bb57829003601f168201915b505050505081526020016004820180546102f19061149c565b80601f016020809104026020016040519081016040528092919081815260200182805461031d9061149c565b801561036a5780601f1061033f5761010080835404028352916020019161036a565b820191906000526020600020905b81548152906001019060200180831161034d57829003601f168201915b505050505081526020016005820180546103839061149c565b80601f01602080910402602001604051908101604052809291908181526020018280546103af9061149c565b80156103fc5780601f106103d1576101008083540402835291602001916103fc565b820191906000526020600020905b8154815290600101906020018083116103df57829003601f168201915b505050505081526020016006820180546104159061149c565b80601f01602080910402602001604051908101604052809291908181526020018280546104419061149c565b801561048e5780601f106104635761010080835404028352916020019161048e565b820191906000526020600020905b81548152906001019060200180831161047157829003601f168201915b505050505081526020016007820160009054906101000a900473ffffffffffffffffffffffffffffffffffffffff1673ffffffffffffffffffffffffffffffffffffffff1673ffffffffffffffffffffffffffffffffffffffff1681525050815260200190600101906100fd565b50505050905090565b60008054905090565b600082511161051c57600080fd5b600086511161052a57600080fd5b600085511161053857600080fd5b600084511161054657600080fd5b600083511161055457600080fd5b600073ffffffffffffffffffffffffffffffffffffffff163373ffffffffffffffffffffffffffffffffffffffff16141561058e57600080fd5b6000808154809291906105a0906114ff565b91905055506105af6001610c52565b60026040518061010001604052806105c76001610c68565b81526020018881526020018781526020018681526020018581526020018481526020018381526020013373ffffffffffffffffffffffffffffffffffffffff168152509080600181540180825580915050600190039060005260206000209060080201600090919091909150600082015181600001556020820151816001019080519060200190610659929190610c9f565b506040820151816002019080519060200190610676929190610c9f565b506060820151816003019080519060200190610693929190610c9f565b5060808201518160040190805190602001906106b0929190610c9f565b5060a08201518160050190805190602001906106cd929190610c9f565b5060c08201518160060190805190602001906106ea929190610c9f565b5060e08201518160070160006101000a81548173ffffffffffffffffffffffffffffffffffffffff021916908373ffffffffffffffffffffffffffffffffffffffff16021790555050507f7bf4c46102542cfa33479ac8707f89e1089966f223d6bd0994c33992a94c794061075f6001610c68565b8787878787873360405161077a9897969594939291906112ba565b60405180910390a1505050505050565b610792610d25565b600282815481106107cc577f4e487b7100000000000000000000000000000000000000000000000000000000600052603260045260246000fd5b906000526020600020906008020160405180610100016040529081600082015481526020016001820180546108009061149c565b80601f016020809104026020016040519081016040528092919081815260200182805461082c9061149c565b80156108795780601f1061084e57610100808354040283529160200191610879565b820191906000526020600020905b81548152906001019060200180831161085c57829003601f168201915b505050505081526020016002820180546108929061149c565b80601f01602080910402602001604051908101604052809291908181526020018280546108be9061149c565b801561090b5780601f106108e05761010080835404028352916020019161090b565b820191906000526020600020905b8154815290600101906020018083116108ee57829003601f168201915b505050505081526020016003820180546109249061149c565b80601f01602080910402602001604051908101604052809291908181526020018280546109509061149c565b801561099d5780601f106109725761010080835404028352916020019161099d565b820191906000526020600020905b81548152906001019060200180831161098057829003601f168201915b505050505081526020016004820180546109b69061149c565b80601f01602080910402602001604051908101604052809291908181526020018280546109e29061149c565b8015610a2f5780601f10610a0457610100808354040283529160200191610a2f565b820191906000526020600020905b815481529060010190602001808311610a1257829003601f168201915b50505050508152602001600582018054610a489061149c565b80601f0160208091040260200160405190810160405280929190818152602001828054610a749061149c565b8015610ac15780601f10610a9657610100808354040283529160200191610ac1565b820191906000526020600020905b815481529060010190602001808311610aa457829003601f168201915b50505050508152602001600682018054610ada9061149c565b80601f0160208091040260200160405190810160405280929190818152602001828054610b069061149c565b8015610b535780601f10610b2857610100808354040283529160200191610b53565b820191906000526020600020905b815481529060010190602001808311610b3657829003601f168201915b505050505081526020016007820160009054906101000a900473ffffffffffffffffffffffffffffffffffffffff1673ffffffffffffffffffffffffffffffffffffffff1673ffffffffffffffffffffffffffffffffffffffff16815250509050919050565b610c4f81604051602401610bcd919061125b565b6040516020818303038152906040527f41304fac000000000000000000000000000000000000000000000000000000007bffffffffffffffffffffffffffffffffffffffffffffffffffffffff19166020820180517bffffffffffffffffffffffffffffffffffffffffffffffffffffffff8381831617835250505050610c76565b50565b6001816000016000828254019250508190555050565b600081600001549050919050565b60008151905060006a636f6e736f6c652e6c6f679050602083016000808483855afa5050505050565b828054610cab9061149c565b90600052602060002090601f016020900481019282610ccd5760008555610d14565b82601f10610ce657805160ff1916838001178555610d14565b82800160010185558215610d14579182015b82811115610d13578251825591602001919060010190610cf8565b5b509050610d219190610d80565b5090565b60405180610100016040528060008152602001606081526020016060815260200160608152602001606081526020016060815260200160608152602001600073ffffffffffffffffffffffffffffffffffffffff1681525090565b5b80821115610d99576000816000905550600101610d81565b5090565b6000610db0610dab84611387565b611362565b905082815260208101848484011115610dc857600080fd5b610dd384828561145a565b509392505050565b600082601f830112610dec57600080fd5b8135610dfc848260208601610d9d565b91505092915050565b600081359050610e14816115e6565b92915050565b60008060008060008060c08789031215610e3357600080fd5b600087013567ffffffffffffffff811115610e4d57600080fd5b610e5989828a01610ddb565b965050602087013567ffffffffffffffff811115610e7657600080fd5b610e8289828a01610ddb565b955050604087013567ffffffffffffffff811115610e9f57600080fd5b610eab89828a01610ddb565b945050606087013567ffffffffffffffff811115610ec857600080fd5b610ed489828a01610ddb565b935050608087013567ffffffffffffffff811115610ef157600080fd5b610efd89828a01610ddb565b92505060a087013567ffffffffffffffff811115610f1a57600080fd5b610f2689828a01610ddb565b9150509295509295509295565b600060208284031215610f4557600080fd5b6000610f5384828501610e05565b91505092915050565b6000610f688383611075565b905092915050565b610f798161141e565b82525050565b610f888161141e565b82525050565b6000610f99826113c8565b610fa381856113eb565b935083602082028501610fb5856113b8565b8060005b85811015610ff15784840389528151610fd28582610f5c565b9450610fdd836113de565b925060208a01995050600181019050610fb9565b50829750879550505050505092915050565b600061100e826113d3565b61101881856113fc565b9350611028818560208601611469565b611031816115d5565b840191505092915050565b6000611047826113d3565b611051818561140d565b9350611061818560208601611469565b61106a816115d5565b840191505092915050565b60006101008301600083015161108e600086018261121b565b50602083015184820360208601526110a68282611003565b915050604083015184820360408601526110c08282611003565b915050606083015184820360608601526110da8282611003565b915050608083015184820360808601526110f48282611003565b91505060a083015184820360a086015261110e8282611003565b91505060c083015184820360c08601526111288282611003565b91505060e083015161113d60e0860182610f70565b508091505092915050565b600061010083016000830151611161600086018261121b565b50602083015184820360208601526111798282611003565b915050604083015184820360408601526111938282611003565b915050606083015184820360608601526111ad8282611003565b915050608083015184820360808601526111c78282611003565b91505060a083015184820360a08601526111e18282611003565b91505060c083015184820360c08601526111fb8282611003565b91505060e083015161121060e0860182610f70565b508091505092915050565b61122481611450565b82525050565b61123381611450565b82525050565b600060208201905081810360008301526112538184610f8e565b905092915050565b60006020820190508181036000830152611275818461103c565b905092915050565b600060208201905081810360008301526112978184611148565b905092915050565b60006020820190506112b4600083018461122a565b92915050565b6000610100820190506112d0600083018b61122a565b81810360208301526112e2818a61103c565b905081810360408301526112f6818961103c565b9050818103606083015261130a818861103c565b9050818103608083015261131e818761103c565b905081810360a0830152611332818661103c565b905081810360c0830152611346818561103c565b905061135560e0830184610f7f565b9998505050505050505050565b600061136c61137d565b905061137882826114ce565b919050565b6000604051905090565b600067ffffffffffffffff8211156113a2576113a16115a6565b5b6113ab826115d5565b9050602081019050919050565b6000819050602082019050919050565b600081519050919050565b600081519050919050565b6000602082019050919050565b600082825260208201905092915050565b600082825260208201905092915050565b600082825260208201905092915050565b600061142982611430565b9050919050565b600073ffffffffffffffffffffffffffffffffffffffff82169050919050565b6000819050919050565b82818337600083830152505050565b60005b8381101561148757808201518184015260208101905061146c565b83811115611496576000848401525b50505050565b600060028204905060018216806114b457607f821691505b602082108114156114c8576114c7611577565b5b50919050565b6114d7826115d5565b810181811067ffffffffffffffff821117156114f6576114f56115a6565b5b80604052505050565b600061150a82611450565b91507fffffffffffffffffffffffffffffffffffffffffffffffffffffffffffffffff82141561153d5761153c611548565b5b600182019050919050565b7f4e487b7100000000000000000000000000000000000000000000000000000000600052601160045260246000fd5b7f4e487b7100000000000000000000000000000000000000000000000000000000600052602260045260246000fd5b7f4e487b7100000000000000000000000000000000000000000000000000000000600052604160045260246000fd5b6000601f19601f8301169050919050565b6115ef81611450565b81146115fa57600080fd5b5056fea264697066735822122020b9d161753565b92c462deb2cc1cb2be0f860ac6c2fc01dc69069a1a7bc8e4964736f6c63430008040033",
  "linkReferences": {},
  "deployedLinkReferences": {}
}